{"abi":[{"type":"function","name":"_msgSender","inputs":[],"outputs":[{"name":"sender","type":"address","internalType":"address"}],"stateMutability":"view"},{"type":"function","name":"_msgValue","inputs":[],"outputs":[{"name":"value","type":"uint256","internalType":"uint256"}],"stateMutability":"pure"},{"type":"function","name":"_world","inputs":[],"outputs":[{"name":"","type":"address","internalType":"address"}],"stateMutability":"view"},{"type":"function","name":"mint","inputs":[{"name":"item","type":"uint32","internalType":"uint32"}],"outputs":[],"stateMutability":"nonpayable"},{"type":"function","name":"supportsInterface","inputs":[{"name":"interfaceId","type":"bytes4","internalType":"bytes4"}],"outputs":[{"name":"","type":"bool","internalType":"bool"}],"stateMutability":"pure"},{"type":"event","name":"Store_SpliceStaticData","inputs":[{"name":"tableId","type":"bytes32","indexed":true,"internalType":"ResourceId"},{"name":"keyTuple","type":"bytes32[]","indexed":false,"internalType":"bytes32[]"},{"name":"start","type":"uint48","indexed":false,"internalType":"uint48"},{"name":"data","type":"bytes","indexed":false,"internalType":"bytes"}],"anonymous":false},{"type":"error","name":"Slice_OutOfBounds","inputs":[{"name":"data","type":"bytes","internalType":"bytes"},{"name":"start","type":"uint256","internalType":"uint256"},{"name":"end","type":"uint256","internalType":"uint256"}]}],"bytecode":{"object":"0x608060405234801561001057600080fd5b506112b1806100206000396000f3fe608060405234801561001057600080fd5b50600436106100675760003560e01c806345ec93541161005057806345ec9354146100c1578063a71bbebe146100d4578063e1af802c146100e957600080fd5b806301ffc9a71461006c578063119df25f14610094575b600080fd5b61007f61007a366004610f0a565b6100f1565b60405190151581526020015b60405180910390f35b61009c61018a565b60405173ffffffffffffffffffffffffffffffffffffffff909116815260200161008b565b604051601f19360135815260200161008b565b6100e76100e2366004610f4c565b610199565b005b61009c6101ce565b60007fffffffff0000000000000000000000000000000000000000000000000000000082167fb421288000000000000000000000000000000000000000000000000000000000148061018457507fffffffff0000000000000000000000000000000000000000000000000000000082167f01ffc9a700000000000000000000000000000000000000000000000000000000145b92915050565b60006101946101d8565b905090565b60006101ac6101a661018a565b8361020a565b90506101ca6101b961018a565b836101c5846005610fa1565b610326565b5050565b6000610194610474565b7fffffffffffffffffffffffffffffffffffffffffffffffffffffffffffffffcc36013560601c806102075750335b90565b604080516002808252606082018352600092839291906020830190803683370190505090508373ffffffffffffffffffffffffffffffffffffffff1660001b8160008151811061025c5761025c610fc5565b6020026020010181815250508263ffffffff1660001b8160018151811061028557610285610fc5565b60209081029190910181019190915260408051613a3160f11b928101929092526000602283018190527f42616c616e6365546161626c650000000000000000000000000000000000000060308401529161031a91016040516020818303038152906040526102f290610ff4565b8360007e040100040000000000000000000000000000000000000000000000000000006104c0565b60e01c95945050505050565b6040805160028082526060820183526000926020830190803683370190505090508373ffffffffffffffffffffffffffffffffffffffff1660001b8160008151811061037457610374610fc5565b6020026020010181815250508263ffffffff1660001b8160018151811061039d5761039d610fc5565b60209081029190910181019190915260408051613a3160f11b81840152600060228201527f42616c616e6365546161626c65000000000000000000000000000000000000006030820152815180820390930183528101905261046e9061040290610ff4565b6040517fffffffff0000000000000000000000000000000000000000000000000000000060e086901b166020820152839060009060240160408051601f198184030181529190527e0401000400000000000000000000000000000000000000000000000000000061059f565b50505050565b7f629a4c26e296b22a8e0856e9f6ecb2d1008d7e00081111962cd175fa7488e1755460009073ffffffffffffffffffffffffffffffffffffffff16806104bb573391505090565b919050565b6000806104cb610474565b90503073ffffffffffffffffffffffffffffffffffffffff8216036104fe576104f68686868661066f565b915050610597565b6040517f8c364d5900000000000000000000000000000000000000000000000000000000815273ffffffffffffffffffffffffffffffffffffffff821690638c364d5990610556908990899089908990600401611056565b602060405180830381865afa158015610573573d6000803e3d6000fd5b505050506040513d601f19601f820116820180604052508101906104f69190611085565b949350505050565b60006105a9610474565b90503073ffffffffffffffffffffffffffffffffffffffff8216036105da576105d586868686866106a5565b610667565b6040517f390baae000000000000000000000000000000000000000000000000000000000815273ffffffffffffffffffffffffffffffffffffffff82169063390baae09061063490899089908990899089906004016110e4565b600060405180830381600087803b15801561064e57600080fd5b505af1158015610662573d6000803e3d6000fd5b505050505b505050505050565b600061069c61067e86866106c1565b60ff858116601b0360080285901c166106978587610717565b61075a565b95945050505050565b6106ba85856106b48487610717565b856107ab565b5050505050565b600082826040516020016106d692919061112b565b60408051601f1981840301815291905280516020909101207f86425bff6b57326c7859e89024fe4f238ca327a1ae4a230180dd2f0e88aaa7d9189392505050565b600080805b8360ff168110156107525761073e60ff601b83900360080287901c1683611166565b91508061074a81611179565b91505061071c565b509392505050565b6000602082106107805760208204840193506020828161077c5761077c611193565b0691505b508254600882021b602082900380841115610752576001850154600882021c82179150509392505050565b60006107b785856106c1565b9050847f8c0b5119d4cec7b284c6b1b39252a03d1e2f2d7451a5895562524c113bb952be8585856040516107ed939291906111c2565b60405180910390a2613a3160f11b857fffff0000000000000000000000000000000000000000000000000000000000001614610829575061046e565b600061083486610a0d565b905060005b815181101561091357600082828151811061085657610856610fc5565b602002602001015190506108826004826affffffffffffffffffffff1916610aed90919063ffffffff16565b15610900576040517f964f667d000000000000000000000000000000000000000000000000000000008152606082901c9063964f667d906108cd908b908b908b908b906004016111ff565b600060405180830381600087803b1580156108e757600080fd5b505af11580156108fb573d6000803e3d6000fd5b505050505b508061090b81611179565b915050610839565b50610927828565ffffffffffff1685610b0b565b60005b8151811015610a0457600082828151811061094757610947610fc5565b602002602001015190506109736008826affffffffffffffffffffff1916610aed90919063ffffffff16565b156109f1576040517fa8ba8721000000000000000000000000000000000000000000000000000000008152606082901c9063a8ba8721906109be908b908b908b908b906004016111ff565b600060405180830381600087803b1580156109d857600080fd5b505af11580156109ec573d6000803e3d6000fd5b505050505b50806109fc81611179565b91505061092a565b50505050505050565b60408051600180825281830190925260609160009190602080830190803683370190505090508281600081518110610a4757610a47610fc5565b60209081029190910181019190915260408051613a3160f11b818401527f73746f726500000000000000000000000000000000000000000000000000000060228201527f53746f7265486f6f6b730000000000000000000000000000000000000000000060308201528151808203909301835281019052600090610ad690610ace90610ff4565b836000610b20565b9050610597610ae88260008451610b5a565b610bf3565b60008160ff1682610afe8560581c90565b1660ff1614905092915050565b610b1b8383602084018451610c0b565b505050565b6060610597610b30858585610ccb565b610b5384610b3e8888610d4b565b9060ff166028026038011c64ffffffffff1690565b6000610d5e565b6000818311158015610b6d575083518211155b610bb2578383836040517f23230fa3000000000000000000000000000000000000000000000000000000008152600401610ba993929190611243565b60405180910390fd5b60208401610bc08482611166565b90506000610bce8585611268565b6fffffffffffffffffffffffffffffffff1660809290921b9190911795945050505050565b60606000610c048360156000610d81565b9392505050565b8215610c855760208310610c3557602083048401935060208381610c3157610c31611193565b0692505b8215610c855760208390036000600019600884021c1990506008850281811c91508451811c9050811987541682821617875550818311610c7657505061046e565b50600194909401939182019190035b5b60208110610ca75781518455600190930192602090910190601f1901610c86565b801561046e576000600019600883021c198554845182169119161785555050505050565b60008383604051602001610ce092919061112b565b604051602081830303815290604052805190602001208260f81b7effffffffffffffffffffffffffffffffffffffffffffffffffffffffffffff19167f3b4102da22e32d82fc925482184f16c09fd4281692720b87d124aef6da48a0f1181860001c90509392505050565b6000610c04610d5a8484610dfc565b5490565b60405160208101601f19603f858401011660405283825261075285858584610e52565b60606000610d8f8560801c90565b90506fffffffffffffffffffffffffffffffff85166000858281610db557610db5611193565b04905060405193506020840160208202810160405281855260005b82811015610df0578451871c825293870193602090910190600101610dd0565b50505050509392505050565b60008282604051602001610e1192919061112b565b60408051601f1981840301815291905280516020909101207f14e2fcc58e58e68ec7edc30c8d50dccc3ce2714a623ec81f46b6a63922d76569189392505050565b8115610ec45760208210610e7c57602082048401935060208281610e7857610e78611193565b0691505b8115610ec45760208290036000600019600883021c1990508554600885021b811984511682821617845250818511610eb557505061046e565b50600194909401939283900392015b5b60208310610ee65783548152600190930192601f1990920191602001610ec5565b821561046e576000600019600885021c198251865482169119161782525050505050565b600060208284031215610f1c57600080fd5b81357fffffffff0000000000000000000000000000000000000000000000000000000081168114610c0457600080fd5b600060208284031215610f5e57600080fd5b813563ffffffff81168114610c0457600080fd5b7f4e487b7100000000000000000000000000000000000000000000000000000000600052601160045260246000fd5b63ffffffff818116838216019080821115610fbe57610fbe610f72565b5092915050565b7f4e487b7100000000000000000000000000000000000000000000000000000000600052603260045260246000fd5b80516020808301519190811015611015576000198160200360031b1b821691505b50919050565b600081518084526020808501945080840160005b8381101561104b5781518752958201959082019060010161102f565b509495945050505050565b84815260806020820152600061106f608083018661101b565b60ff949094166040830152506060015292915050565b60006020828403121561109757600080fd5b5051919050565b6000815180845260005b818110156110c4576020818501810151868301820152016110a8565b506000602082860101526020601f19601f83011685010191505092915050565b85815260a0602082015260006110fd60a083018761101b565b60ff861660408401528281036060840152611118818661109e565b9150508260808301529695505050505050565b82815260006020808301845182860160005b828110156111595781518452928401929084019060010161113d565b5091979650505050505050565b8082018082111561018457610184610f72565b6000600019820361118c5761118c610f72565b5060010190565b7f4e487b7100000000000000000000000000000000000000000000000000000000600052601260045260246000fd5b6060815260006111d5606083018661101b565b65ffffffffffff8516602084015282810360408401526111f5818561109e565b9695505050505050565b848152608060208201526000611218608083018661101b565b65ffffffffffff851660408401528281036060840152611238818561109e565b979650505050505050565b606081526000611256606083018661109e565b60208301949094525060400152919050565b8181038181111561018457610184610f7256fea26469706673582212207fbeb337a78b51842b765a8247bdf61b2f3435e329477e732503a88b32ad6e4c64736f6c63430008150033","linkReferences":{}},"methodIdentifiers":{"_msgSender()":"119df25f","_msgValue()":"45ec9354","_world()":"e1af802c","mint(uint32)":"a71bbebe","supportsInterface(bytes4)":"01ffc9a7"},"id":156}